S0140000636F6469676F5465747269732E7372656320
S11300000C9434000C9451000C9451000C94F004A2
S11300100C9451000C9451000C9451000C94510018
S11300200C9451000C9451000C9451000C948605CE
S11300300C9451000C9451000C9426050C9451001E
S11300400C9451000C9451000C9451000C945100E8
S11300500C9451000C9451000C9451000C945100D8
S11300600C9451000C94510011241FBECFEFD8E022
S1130070DEBFCDBF11E0A0E0B1E0ECE9FBE002C0DF
S113008005900D92AE37B107D9F722E0AEE7B1E0A3
S113009001C01D92A231B207E1F70E94C8030C947B
S11300A0CC050C9400000F931F93CF93DF93A6E825
S11300B0B1E06AE072E080E000E010E0C2E0D0E08D
S11300C091E00EC021913191232B31F04F5F5F4FAE
S11300D046305105B9F708C01C96A617B70739F181
S11300E0FD01402F512FEECF20917E0130917F01F1
S11300F02C593F4F30937F0120937E011196DC935E
S1130100CE931396DC93CE9312971596DC93CE93ED
S113011014971796DC93CE9316971996DC93CE9387
S113012018971B96DC93CE931A97892FD5CFDF911E
S1130130CF911F910F910895CF92DF92EF92FF928A
S11301400F931F93CF93DF930EEF11E06AE070E0FB
S11301500F2EF6E8EF2EF1E0FF2EF02DC2E9D1E0EC
S113016029C0FA01AF014E5F5F4F808191810297F0
S1130170A9F477239CF03C978C2D9D2D009759F082
S1130180208131813587248701973C978F3F2FEF5A
S11301909207A1F703C011961C921E921296AC17F7
S11301A0BD07F9F6615071090C5011096F3F8FEFCB
S11301B0780729F0D701F801C62ED72ED3CFDF91C7
S11301C0CF911F910F91FF90EF90DF90CF90089502
S11301D0EAEAF1E026EB31E041E081919191019767
S11301E021F440930F0240930A02E217F307A9F7A0
S11301F0089548E851E06CE072E0B1E0A0E00EC080
S1130200219131912330310599F001968630910581
S1130210B9F7445F5F4F4617570761F0FA01329709
S113022080819181039741F0FA018B2F9A2FE8CFB7
S113023081E0089580E0089581E008950F931F936D
S1130240CF93DF93811109C06AE072E046E851E080
S113025011E0D0E0C0E000E061C06AE072E046E88E
S113026051E0C1E0B0E0A0E010E0D12F19C021912D
S113027031912330310549F48530910559F02081BD
S113028031812130310509F4CD2F01968630910555
S113029071F701C0C12F445F5F4F4617570721F024
S11302A0FA018B2F9A2FE3CFCC2309F45FC042E9E4
S11302B051E0A6E1B2E0D6E0C0E063E070E012C035
S11302C0329122912330310521F4118210827383FB
S11302D0628301970097A1F7445F5F4F4A175B075A
S11302E009F444C0FA018D2F9C2FEACF219131915A
S11302F02330310551F40097B1F1DF0114972D91AA
S11303003C912130310509F4102F01968630910576
S113031069F7445F5F4F4617570721F0FA018D2FA5
S11303209C2FE4CF112311F144E851E0A8E0B2E09E
S1130330D6E0C0E063E070E012C022813381233054
S1130340310521F4138212827183608301973296FE
S1130350009799F7445F5F4F4A175B0739F0FA013A
S11303608D2F9C2FEACF0196102FC0CFDF91CF9114
S11303701F910F9108951F93CF93DF9342E951E0AA
S113038060E070E081E090E01BC021913191233066
S1130390310561F46A30710531F0228533852130ED
S11303A0310521F402C0892F01C0892F4E175F0740
S11303B061F76F5F7F4F445F5F4F6B30710519F0DA
S11303C0FA013C97E2CF811109C06EEF71E0CAE0F7
S11303D0D2E01BE090E0A1E0B0E034C06EEF71E049
S11303E0CAE0D2E01AE090E0A3E0B0E015C040819A
S11303F051814330510521F411821082B587A487BD
S1130400215031093C972F3F4FEF340781F76E5F3E
S11304107F4F6C177D07D1F0FB01212F392FE7CFD8
S1130420408151814330510511F4B183A08321509F
S113043031093C972115310599F76E5F7F4F6C1791
S11304407D0721F0FB01212F392FEACFDF91CF91D6
S11304501F9108954F925F926F927F928F929F9215
S1130460AF92BF92CF92DF92EF92FF920F931F93BE
S1130470CF93DF93CDB7DEB762970FB6F894DEBFA4
S11304800FBECDBF2AE030E040E050E000E010E0D5
S11304901BC0FD01E80FF91FEE0FFF1FEA57FE4FC7
S11304A0608171816330710509F4CAC00196863098
S11304B0910579F721503109332334F49A0185E009
S11304C090E0B0E0A0E024C0802F912FD901AA0FC2
S11304D0BB1FA20FB31FAA0FBB1FDBCFFB01EE0F85
S11304E0FF1FE60FF71FEE0FFF1FE80FF91FEE0FB8
S11304F0FF1FEA57FE4F0190F081E02D339769F01A
S11305006F5F7F4F6B30710549F7019799231CF09A
S11305106B2F7A2FE3CF80E090E0FE01319662E109
S1130520DF011D926A95E9F7B901635071096217F9
S113053073070CF06CC07E01B1E1EB0EF11C5C01A1
S1130540B901660F771F620F731F660F771F680F5D
S1130550791F660F771FFB01EA57FE4F6F014E01AB
S1130560FBE08F0E911C3C0163E0661A7108412C7C
S1130570512C26C0552384F08501061B170B62F00D
S11305800D911C9111970130110519F0118300830D
S113059005C01182108202C0118210826F5F7F4FEA
S11305A0369712976330710529F741505109A2E03B
S11305B0EA1AF108BCE0CB1AD108E814F90439F1BD
S11305C06816790694F7D601F701642D752DD2CFFC
S11305D033234CF06801C81AD90A2AF0C080D180AC
S11305E01196DC92CE920196329712978330910540
S11305F079F7465051096C507109215031094E1553
S11306005F0501F1DB01FA018A2D9B2DE1CFAE01DB
S11306104F5E5F4F8C01B901660F771F620F731F26
S1130620660F771F860F971FBC01660F771F6A57E7
S11306307E4F7E01E1E0EE1AF108A12CB12CE2CF4D
S1130640A9013DCF62960FB6F894DEBF0FBECDBFB1
S1130650DF91CF911F910F91FF90EF90DF90CF909A
S1130660BF90AF909F908F907F906F905F904F90CE
S11306700895EF92FF920F931F93CF93DF93CDB71B
S1130680DEB7CE57D1090FB6F894DEBF0FBECDBF8B
S11306908EE7E0E0F1E0DE01119601900D928A957B
S11306A0E1F7E6B595E2E99F912D11248E2F891B80
S11306B08695890F86958695982F990F990F990F8E
S11306C0981BE91BF0E0EE0FFF1FCF01880F991F65
S11306D0880F991F880F991FE80FF91F81E090E098
S11306E08C0F9D1FE80FF91F8081918190938B01DE
S11306F080938A01868197819093970180939601D4
S1130700848595859093A3018093A201828193812E
S113071090938D0180938C018085918590939901AC
S113072080939801868597859093A5018093A40171
S11307308481958190938F0180938E018285938526
S113074090939B0180939A01808991899093A7014A
S11307508093A60186B58370E82EF12C1E141F0425
S11307604CF400E010E00E942A020F5F1F4F0E15A8
S11307701F05CCF3C258DF4F0FB6F894DEBF0FBE8F
S1130780CDBFDF91CF911F910F91FF90EF9008950E
S11307908FEF8AB98BB987B918B814B824B190E42B
S11307A0922794B985B9E8E6F0E08081816080837E
S11307B0EBE6F0E0808181608083808182608083C9
S11307C0808184608083808188608083808180616F
S11307D0808383E687BD85B5886085BD85B58260E5
S11307E085BDEEE6F0E080818260808388E09DE351
S11307F09093890080938800E1E8F0E0808188602C
S11308008083808184608083EFE6F0E08081826071
S113081080837894912C8824839400E21EE4EE244F
S1130820E394F12C0F2EF6E0CF2ED12CF02D0F2EC9
S1130830F6E8AF2EF1E0BF2EF02DCAE0D2E08091B1
S11308401102882309F47EC0992009F46FC0209115
S11308507E0130917F0180917E0190917F01E09132
S11308608001F0918101B8010E94A405A901481BEF
S1130870590BCA01B8010E94A4059701672B11F412
S113088020E030E0B601621B730BCF010E94A40587
S1130890892B09F055C080910F028823B9F0F50126
S11308A01182108213821282158214821782168298
S11308B011861086138612863C96EC17FD0781F785
S11308C010927F0110927E0110920F020E94F90093
S11308D0882301F180910E02882329F00E942A02C4
S11308E010920E0213C080910D02882331F080E033
S11308F00E941E0110920D0209C080910C028823EF
S113090029F0882D0E941E0110920C020E94BB0146
S1130910982E02C00E94390380917E0190917F013C
S1130920019690937F0180937E010AC00E94530038
S1130930882319F00E949C0003C00E94E800982CB0
S11309401092110280911002882309F478CF18B80C
S113095020918401309185018091820190918301DD
S11309602D5F3F4FF901EE0FFF1F2E0F3F1FF901BF
S1130970EE0FFF1FE80FF91FEE0FFF1FEA57FE4FA0
S1130980808191810197E1F020918401309185016A
S113099080918201909183012D5F3F4FF901EE0F09
S11309A0FF1F2E0F3F1FF901EE0FFF1FE80FF91F66
S11309B0EE0FFF1FEA57FE4F80819181039769F480
S11309C048B12091820130918301C70102C0880F90
S11309D0991F2A95E2F7842B88B9109210022FCF21
S11309E01F920F920FB60F9211248F939F93189911
S11309F004C081E080930E021EC0199904C081E0F6
S1130A0080930D0218C01A9904C081E080930C02EF
S1130A1012C01B9904C081E080930B020CC01C9986
S1130A200AC080910A02882319F010920A0203C0B6
S1130A3081E080930A0295B180E4892785B99F916A
S1130A408F910F900FBE0F901F9018951F920F92C9
S1130A500FB60F9211242F933F934F935F936F938D
S1130A608F939F938091820190918301019690933B
S1130A708301809382018091820190918301069782
S1130A80B1F510928301109282016BB1209184011F
S1130A903091850141E050E0CA0102C0880F991FDE
S1130AA02A95E2F7862B8BB9809184019091850178
S1130AB001969093850180938401809184019091A3
S1130AC08501089721F410928501109284016BB17D
S1130AD0209184013091850141E050E0CA0102C0B7
S1130AE0880F991F2A95E2F7809586238BB981E0B8
S1130AF0809310029F918F916F915F914F913F91DD
S1130B002F910F900FBE0F901F9018951F920F9268
S1130B100FB60F9211248F939F9380910A02811133
S1130B200CC0809180019091810101969093810184
S1130B308093800181E0809311029F918F910F90A7
S1130B400FBE0F901F90189597FB072E16F4009474
S1130B5007D077FD09D00E94B80507FC05D03EF404
S1130B60909581959F4F0895709561957F4F089555
S1130B70AA1BBB1B51E107C0AA1FBB1FA617B707BF
S1130B8010F0A61BB70B881F991F5A95A9F78095DB
S10F0B909095BC01CD010895F894FFCFAE
S1130B9C0300030000000300000000000300000039
S1130BAC000003000300000000000300000000002C
S1130BBC030000000000000000000300030000001C
S1130BCC0300030000000300000000000300000009
S1130BDC00000300000000000300000000000300FC
S1130BEC03000000000003000000000003000000EC
S1130BFC03000300000003000000000003000000D9
S1110C0C0000030003000000030000000000CD
S903020AF0
